:040000004EEF0CF0C3
:10100000006368616E676520706173732020202023
:10101000310072657475726E2020202020202020FF
:10102000203200454E5445522050415353574F52A1
:101030004400454E544552204F4C44205041535398
:1010400000454E544552204E4557205041535300C1
:1010500052455F454E5445522050415353007765E9
:101060006C636F6D652C686562610068656C6C6FA0
:1010700020686562610057524F4E470077726F6E6D
:101080006700444F4E450000000E1C6E000E0C6EB3
:10109000760ED36EA9EC0BF0250E026E800E016E5B
:1010A000F5EC0AF093908A9093928A9293948A94A2
:1010B000010E016E320E2BEC0CF0020E016E330E9F
:1010C0002BEC0CF0030E016E320E2BEC0CF0040E28
:1010D000016E330E2BEC0CF0010E41EC0CF01D6E8A
:1010E000020E41EC0CF01E6E030E41EC0CF01F6E74
:1010F000040E41EC0CF0206E000E216E010EC6ECC9
:101100000BF0000E056E030E88EC0BF02A0E016E3C
:10111000000E026E6B0E036E100E046E66EC0BF08A
:101120002A0E056E000E066EE3EC0BF0000E0E6E3E
:10113000000E0D6E0EBE08D00E5011E11E0E0D5C9D
:10114000D8B00DD001D00BD0820E0B6EDE0EE82E83
:10115000FED70B2EFCD70D4A0E2AECD700D0010E7D
:10116000C6EC0BF0000E056E010E88EC0BF02A0E9B
:10117000016E000E026E230E036E100E046E66ECFE
:101180000BF02A0E056E000E066EE3EC0BF0000E5F
:10119000236E000E226E23BE08D0235005E1050EFB
:1011A000225CD8B01CD201D01AD2170E2224D96EDC
:1011B000000E2320DA6E59EC0CF0DF6E730E171858
:1011C000D8A413D1010EC6EC0BF0000E056E000E74
:1011D00088EC0BF02A0E016E000E026E010E036EFB
:1011E000100E046E66EC0BF02A0E056E000E066EF5
:1011F000E3EC0BF0010E056E000E88EC0BF02A0EEE
:10120000016E000E026E120E036E100E046E66EC7E
:101210000BF02A0E056E000E066EE3EC0BF059EC97
:101220000CF0176E310E1718D8A499D7010EC6EC22
:101230000BF0000E056E000E88EC0BF02A0E016E0E
:10124000000E026E320E036E100E046E66EC0BF092
:101250002A0E056E000E066EE3EC0BF0000E256EF6
:10126000000E246E25BE08D0255013E1050E245C27
:10127000D8B00FD001D00DD0170E2424D96E000E97
:101280002520DA6E59EC0CF0DF6E244A252AEAD7C5
:1012900000D0000E1B6E170E016E000E026E1D0EAA
:1012A000036E000E046E3FEC0BF001501C6E1C50E0
:1012B000D8A47FD0010EC6EC0BF0000E056E000E18
:1012C00088EC0BF02A0E016E000E026E410E036ECA
:1012D000100E046E66EC0BF02A0E056E000E066E04
:1012E000E3EC0BF0000E276E000E266E27BE08D032
:1012F000275013E1050E265CD8B00FD001D00DD0D9
:101300001D0E2624D96E000E2720DA6E59EC0CF043
:10131000DF6E264A272AEAD700D0000E216E010E82
:10132000016E1D502BEC0CF0020E016E1E502BECCA
:101330000CF0030E016E1F502BEC0CF0040E016E2E
:1013400020502BEC0CF0010EC6EC0BF0000E056EDD
:10135000060E88EC0BF02A0E016E000E026E820E55
:10136000036E100E046E66EC0BF02A0E056E000E76
:10137000066EE3EC0BF0000E106E000E0F6E10BE4A
:1013800008D0105005E1140E0F5CD8B0E8D601D09B
:10139000E6D6820E0B6EDE0EE82EFED70B2EFCD7A5
:1013A0000F4A102A10BEF5D7105001E1ECD7D7D65E
:1013B0001CD0010EC6EC0BF0000E056E060E88EC7C
:1013C0000BF02A0E016E000E026E7C0E036E100EE4
:1013D000046E66EC0BF02A0E056E000E066EE3EC52
:1013E0000BF0BDD602D0BBD600D0224A232A23BEA2
:1013F000DCD6235002E1D3D6F2D0F1D0170E016E25
:10140000000E026E1D0E036E000E046E3FEC0BF01C
:1014100001501C6E1C50D8A439D0000E0C6E010E69
:10142000C6EC0BF0000E056E020E88EC0BF02A0ED7
:10143000016E000E026E5E0E036E100E046E66EC00
:101440000BF02A0E056E000E066EE3EC0BF08A849C
:10145000000E126E000E116E12BE08D0125014E172
:10146000140E115CD8B010D001D00ED0820E0B6ECD
:10147000DE0EE82EFED70B2EFCD7114A122A12BE22
:10148000F5D7125001E1ECD78A9469D60C2A030EE5
:101490000C18D8A43BD0000E0C6E010EC6EC0BF05D
:1014A000000E056E050E88EC0BF02A0E016E000E84
:1014B000026E760E036E100E046E66EC0BF02A0EB2
:1014C000056E000E066EE3EC0BF08A828A80000E39
:1014D000146E000E136E14BE08D0145014E11E0ECC
:1014E000135CD8B010D001D00ED0820E0B6EDE0E81
:1014F000E82EFED70B2EFCD7134A142A14BEF5D7BC
:10150000145001E1ECD78A928A9029D6010EC6ECDC
:101510000BF0000E056E050E88EC0BF02A0E016E26
:10152000000E026E760E036E100E046E66EC0BF06B
:101530002A0E056E000E066EE3EC0BF08A82000E9A
:10154000166E000E156E16BE08D0165014E1140E5D
:10155000155CD8B010D001D00ED0820E0B6EDE0E0E
:10156000E82EFED70B2EFCD7154A162A16BEF5D745
:10157000165001E1ECD78A92010EC6EC0BF0000E7A
:10158000056E020E88EC0BF02A0E016E000E026E44
:10159000500E036E100E046E66EC0BF02A0E056EF4
:1015A000000E066EE3EC0BF0000E296E000E286EA6
:1015B00029BE08D0295013E1050E285CD8B00FD001
:1015C00001D00DD0170E2824D96E000E2920DA6E16
:1015D00059EC0CF0DF6E284A292AEAD700D0000E19
:1015E0001B6E0CD7BCD500EF00F0AB8EAC9CAC985A
:1015F000B886AC840DD0090E09D0810E07D0400EFC
:1016000005D0CF0E03D0670E01D0220EAF6E36D0BC
:1016100001C003F002C004F00450010AD8B410D095
:10162000050AD8B412D00D0AD8B414D02C0AD8B4F4
:1016300016D06E0AD8B418D0AA0AD8B41AD01ED0C0
:1016400003502C0AD8B4D7D719D00350B00AD8B455
:10165000D4D714D00350600AD8B4D1D70FD00350D8
:10166000800AD8B4CED70AD00350000AD8B4CBD75A
:1016700005D00350000AD8B4C8D700D0120005D056
:10168000014A022A034A042A00D001C0D9FF02C03D
:10169000DAFFDF50056E03C0D9FF04C0DAFFDF5068
:1016A00000080524066E0650D8A409D001C0D9FF51
:1016B00002C0DAFFDF50D8B402D0E2D700D0065023
:1016C000016E026A01BE020600D01200050E056E10
:1016D000000E066E09D001C0D9FF02C0DAFF07C0B4
:1016E000DFFF014A022A00D003C0F6FF04C0F7FF63
:1016F000034A042A0800F5CF07F00750D8A4EBD717
:1017000001C0D9FF02C0DAFF000EDF6E00D0120068
:101710000A6E020E05601CD00F0E0A6401D018D0AC
:101720000504D8B402D0800E01D0C00E0AC006F065
:10173000076A0610086E0750096E00D00850C6EC04
:101740000BF00D0E066EFC0EE82EFED7062EFCD713
:101750001200000E836E000E956E838E270E056EAE
:10176000F50EE82EFED7052EFCD700F0320EC6ECA3
:101770000BF0280EC6EC0BF00C0EC6EC0BF0010EB5
:10178000C6EC0BF0060EC6EC0BF01200046E0D0E4C
:10179000036EFC0EE82EFED7032EFCD7000E016E62
:1017A000045015EC0CF00438F00B046E030E036EBD
:1017B000980EE82EFED7032EFCD7000E016E0450C3
:1017C00015EC0CF01200000E076E0DD00750010D45
:1017D000F3500524D96EF4500620DA6EDF50FFEC8A
:1017E0000BF0072A00D00750010DF3500524D96EE5
:1017F000F4500620DA6EDF50D8A4E8D71200046E49
:101800000D0E036EFC0EE82EFED7032EFCD7010E44
:10181000016E045015EC0CF00438F00B046E010E50
:10182000016E045015EC0CF01200026E02380F0B22
:10183000026E02500F0B026E8350F00B836E8350CA
:101840000210836E01B002D0839801D08388839AFE
:10185000838C839C1200026E000EAA6E01C0A9FF49
:1018600002C0A8FFA69EA69CA684F29E550EA76E57
:10187000AA0EA76EA68200D0A6B2FED7F29EA694AC
:101880001200016E000EAA6E01C0A9FFA69EA69CC2
:10189000A68000D0A6B0FED7A850120000EE2AF015
:1018A000100EEE6AE806FDE1000EF86E000144EF4E
:1018B00008F0AB8800D09EAAFED7AE5000D0120030
:020000040020DA
:08000000FFFFFFFFFFFFFFFF00
:020000040030CA
:0E000000FF081F1EFF8181FF0FC00FE00F40A1
:00000001FF
